{
  "contractName": "MyStringStore",
  "abi": [
    {
      "constant": true,
      "inputs": [],
      "name": "myString",
      "outputs": [
        {
          "name": "",
          "type": "string"
        }
      ],
      "payable": false,
      "stateMutability": "view",
      "type": "function"
    },
    {
      "constant": true,
      "inputs": [
        {
          "name": "",
          "type": "uint256"
        }
      ],
      "name": "ballots",
      "outputs": [
        {
          "name": "isActive",
          "type": "bool"
        },
        {
          "name": "candidatesSize",
          "type": "uint256"
        }
      ],
      "payable": false,
      "stateMutability": "view",
      "type": "function"
    },
    {
      "constant": true,
      "inputs": [],
      "name": "owner",
      "outputs": [
        {
          "name": "",
          "type": "address"
        }
      ],
      "payable": false,
      "stateMutability": "view",
      "type": "function"
    },
    {
      "inputs": [],
      "payable": false,
      "stateMutability": "nonpayable",
      "type": "constructor"
    },
    {
      "constant": false,
      "inputs": [
        {
          "name": "x",
          "type": "string"
        }
      ],
      "name": "set",
      "outputs": [],
      "payable": false,
      "stateMutability": "nonpayable",
      "type": "function"
    },
    {
      "constant": true,
      "inputs": [
        {
          "name": "ballotIndex",
          "type": "uint256"
        }
      ],
      "name": "getCandidateNamesForBallot",
      "outputs": [
        {
          "name": "",
          "type": "bytes32[]"
        }
      ],
      "payable": false,
      "stateMutability": "view",
      "type": "function"
    }
  ],
  "bytecode": "0x60806040526040805190810160405280600b81526020017f48656c6c6f20576f726c640000000000000000000000000000000000000000008152506000908051906020019061004f929190610384565b5034801561005c57600080fd5b50606080600080600033600160006101000a81548173ffffffffffffffffffffffffffffffffffffffff021916908373ffffffffffffffffffffffffffffffffffffffff16021790555060026040519080825280602002602001820160405280156100d65781602001602082028038833980820191505090505b5094507f656b737472616b61646e7964617400000000000000000000000000000000000085600081518110151561010957fe5b9060200190602002019060001916908160001916815250507f6c6570737a796b61646e7964617400000000000000000000000000000000000085600181518110151561015157fe5b90602001906020020190600019169081600019168152505060016040519080825280602002602001820160405280156101995781602001602082028038833980820191505090505b509350620335078460008151811015156101af57fe5b90602001906020020181815250506002604080519081016040528060011515815260200160028152509080600181540180825580915050906001820390600052602060002090600402016000909192909190915060008201518160000160006101000a81548160ff02191690831515021790555060208201518160010155505050600260016002805490500381548110151561024757fe5b90600052602060002090600402019250600091505b60028210156102d5576040805190810160405280868481518110151561027e57fe5b9060200190602002015160001916815260200160008152508360020160008481526020019081526020016000206000820151816000019060001916905560208201518160010155905050818060010192505061025c565b600090505b835181101561037a57604080519081016040528060011515815260200160001515815250836003016000868481518110151561031257fe5b90602001906020020151815260200190815260200160002060008201518160000160006101000a81548160ff02191690831515021790555060208201518160000160016101000a81548160ff02191690831515021790555090505080806001019150506102da565b5050505050610429565b828054600181600116156101000203166002900490600052602060002090601f016020900481019282601f106103c557805160ff19168380011785556103f3565b828001600101855582156103f3579182015b828111156103f25782518255916020019190600101906103d7565b5b5090506104009190610404565b5090565b61042691905b8082111561042257600081600090555060010161040a565b5090565b90565b610556806104386000396000f30060806040526004361061006d576000357c0100000000000000000000000000000000000000000000000000000000900463ffffffff16806309578a2e14610072578063492bfa18146100f45780634ed3885e146101845780635c632b38146101ed5780638da5cb5b14610239575b600080fd5b34801561007e57600080fd5b5061009d60048036038101908080359060200190929190505050610290565b6040518080602001828103825283818151815260200191508051906020019060200280838360005b838110156100e05780820151818401526020810190506100c5565b505050509050019250505060405180910390f35b34801561010057600080fd5b50610109610367565b6040518080602001828103825283818151815260200191508051906020019080838360005b8381101561014957808201518184015260208101905061012e565b50505050905090810190601f1680156101765780820380516001836020036101000a031916815260200191505b509250505060405180910390f35b34801561019057600080fd5b506101eb600480360381019080803590602001908201803590602001908080601f0160208091040260200160405190810160405280939291908181526020018383808284378201915050505050509192919290505050610405565b005b3480156101f957600080fd5b506102186004803603810190808035906020019092919050505061041f565b60405180831515151581526020018281526020019250505060405180910390f35b34801561024557600080fd5b5061024e61045f565b604051808273ffffffffffffffffffffffffffffffffffffffff1673ffffffffffffffffffffffffffffffffffffffff16815260200191505060405180910390f35b60608060006002848154811015156102a457fe5b9060005260206000209060040201600101546040519080825280602002602001820160405280156102e45781602001602082028038833980820191505090505b509150600090505b815181101561035d5760028481548110151561030457fe5b9060005260206000209060040201600201600082815260200190815260200160002060000154828281518110151561033857fe5b90602001906020020190600019169081600019168152505080806001019150506102ec565b8192505050919050565b60008054600181600116156101000203166002900480601f0160208091040260200160405190810160405280929190818152602001828054600181600116156101000203166002900480156103fd5780601f106103d2576101008083540402835291602001916103fd565b820191906000526020600020905b8154815290600101906020018083116103e057829003601f168201915b505050505081565b806000908051906020019061041b929190610485565b5050565b60028181548110151561042e57fe5b90600052602060002090600402016000915090508060000160009054906101000a900460ff16908060010154905082565b600160009054906101000a900473ffffffffffffffffffffffffffffffffffffffff1681565b828054600181600116156101000203166002900490600052602060002090601f016020900481019282601f106104c657805160ff19168380011785556104f4565b828001600101855582156104f4579182015b828111156104f35782518255916020019190600101906104d8565b5b5090506105019190610505565b5090565b61052791905b8082111561052357600081600090555060010161050b565b5090565b905600a165627a7a72305820680c47d3ca9a60c7fdbdfaf2cc8caaf3377cd14c00032beca9c008b742f80da80029",
  "source": "pragma solidity ^0.4.24;\r\n\r\ncontract MyStringStore {\r\n    string public myString = \"Hello World\";\r\n    address public owner;\r\n\r\n    struct Voter {\r\n        bool isAllowed;\r\n        bool hasVoted;\r\n    }\r\n\r\n    struct Candidate {\r\n        bytes32 name;\r\n        uint voteCount;\r\n    }\r\n\r\n    struct Ballot {\r\n        bool isActive;\r\n        uint candidatesSize;\r\n        mapping(uint => Candidate) candidates;\r\n        mapping(uint => Voter) voters;  //key means voter id (e.g. 210210)\r\n    }\r\n\r\n    Ballot[] public ballots;\r\n\r\n    constructor() public {\r\n        owner = msg.sender;\r\n\r\n        // rest of the constructor is only example ballot;\r\n        bytes32[] memory candidateNames = new bytes32[](2);\r\n        candidateNames[0] = \"ekstrakadnydat\"; \r\n        candidateNames[1] = \"lepszykadnydat\"; \r\n\r\n        uint[] memory voters = new uint[](1);\r\n        voters[0] = 210183;\r\n\r\n        //create new ballot\r\n        ballots.push(Ballot(true, 2));\r\n        Ballot storage createdBallot = ballots[ballots.length - 1];\r\n\r\n        for(uint i = 0; i < 2; i++)\r\n        {\r\n            createdBallot.candidates[i] = Candidate({name: candidateNames[i], voteCount: 0});\r\n        }\r\n\r\n        for(uint v = 0; v < voters.length; v++)\r\n        {\r\n            createdBallot.voters[voters[v]] = Voter(true, false);\r\n        }\r\n    }\r\n\r\n    function set(string memory x) public    {\r\n        myString = x;\r\n    }\r\n\r\n    function getCandidateNamesForBallot(uint ballotIndex) public view returns(bytes32[]){\r\n        bytes32[] memory candidateNames = new bytes32[](ballots[ballotIndex].candidatesSize);\r\n        for(uint i = 0; i < candidateNames.length; i++)\r\n        {\r\n            candidateNames[i] = ballots[ballotIndex].candidates[i].name;\r\n        }\r\n\r\n        return candidateNames;\r\n    }\r\n}",
  "sourcePath": "C:\\Users\\Mateusz\\source\\repos\\SmartContractsMiddleware\\Contracts\\contracts\\MyStringStore.sol",
  "compiler": {
    "name": "solc",
    "version": "0.4.24+commit.e67f0147.Emscripten.clang"
  },
  "schemaVersion": "2.0.1",
  "updatedAt": "2018-12-07T12:45:30.508Z"
}